{
  "contractName": "EBuyContract",
  "abi": [
    {
      "constant": true,
      "inputs": [
        {
          "name": "",
          "type": "address"
        },
        {
          "name": "",
          "type": "uint256"
        }
      ],
      "name": "sellItems",
      "outputs": [
        {
          "name": "",
          "type": "string"
        }
      ],
      "payable": false,
      "stateMutability": "view",
      "type": "function"
    },
    {
      "constant": true,
      "inputs": [
        {
          "name": "",
          "type": "address"
        },
        {
          "name": "",
          "type": "uint256"
        }
      ],
      "name": "buyItems",
      "outputs": [
        {
          "name": "",
          "type": "string"
        }
      ],
      "payable": false,
      "stateMutability": "view",
      "type": "function"
    },
    {
      "constant": true,
      "inputs": [
        {
          "name": "",
          "type": "uint256"
        }
      ],
      "name": "itemIds",
      "outputs": [
        {
          "name": "",
          "type": "string"
        }
      ],
      "payable": false,
      "stateMutability": "view",
      "type": "function"
    },
    {
      "constant": true,
      "inputs": [
        {
          "name": "",
          "type": "uint256"
        }
      ],
      "name": "deliveryAddresses",
      "outputs": [
        {
          "name": "",
          "type": "address"
        }
      ],
      "payable": false,
      "stateMutability": "view",
      "type": "function"
    },
    {
      "inputs": [],
      "payable": false,
      "stateMutability": "nonpayable",
      "type": "constructor"
    },
    {
      "anonymous": false,
      "inputs": [
        {
          "indexed": false,
          "name": "hashId",
          "type": "string"
        },
        {
          "indexed": false,
          "name": "seller",
          "type": "address"
        }
      ],
      "name": "NewItemEvent",
      "type": "event"
    },
    {
      "anonymous": false,
      "inputs": [
        {
          "indexed": false,
          "name": "hashId",
          "type": "string"
        },
        {
          "indexed": false,
          "name": "seller",
          "type": "address"
        },
        {
          "indexed": false,
          "name": "buyer",
          "type": "address"
        }
      ],
      "name": "NewOrderEvent",
      "type": "event"
    },
    {
      "anonymous": false,
      "inputs": [
        {
          "indexed": false,
          "name": "hashId",
          "type": "string"
        },
        {
          "indexed": false,
          "name": "seller",
          "type": "address"
        },
        {
          "indexed": false,
          "name": "buyer",
          "type": "address"
        }
      ],
      "name": "ReceivedItemEvent",
      "type": "event"
    },
    {
      "anonymous": false,
      "inputs": [
        {
          "indexed": false,
          "name": "hashId",
          "type": "string"
        },
        {
          "indexed": false,
          "name": "seller",
          "type": "address"
        },
        {
          "indexed": false,
          "name": "delivery",
          "type": "address"
        }
      ],
      "name": "ItemSentEvent",
      "type": "event"
    },
    {
      "constant": false,
      "inputs": [
        {
          "name": "ipfsId",
          "type": "string"
        }
      ],
      "name": "registerDelivery",
      "outputs": [],
      "payable": false,
      "stateMutability": "nonpayable",
      "type": "function"
    },
    {
      "constant": true,
      "inputs": [
        {
          "name": "_addr",
          "type": "address"
        }
      ],
      "name": "getDelivery",
      "outputs": [
        {
          "name": "",
          "type": "address"
        },
        {
          "name": "",
          "type": "uint8"
        },
        {
          "name": "ipfsId",
          "type": "string"
        }
      ],
      "payable": false,
      "stateMutability": "view",
      "type": "function"
    },
    {
      "constant": true,
      "inputs": [],
      "name": "listDeliveries",
      "outputs": [
        {
          "name": "",
          "type": "address[]"
        },
        {
          "name": "",
          "type": "uint8[]"
        },
        {
          "name": "ipfsIds",
          "type": "string"
        }
      ],
      "payable": false,
      "stateMutability": "view",
      "type": "function"
    },
    {
      "constant": false,
      "inputs": [
        {
          "name": "_hashId",
          "type": "string"
        },
        {
          "name": "_price",
          "type": "uint256"
        }
      ],
      "name": "addItem",
      "outputs": [
        {
          "name": "",
          "type": "bool"
        }
      ],
      "payable": false,
      "stateMutability": "nonpayable",
      "type": "function"
    },
    {
      "constant": false,
      "inputs": [
        {
          "name": "_hashId",
          "type": "string"
        },
        {
          "name": "_receiverInfo",
          "type": "string"
        }
      ],
      "name": "orderItem",
      "outputs": [
        {
          "name": "",
          "type": "bool"
        }
      ],
      "payable": true,
      "stateMutability": "payable",
      "type": "function"
    },
    {
      "constant": false,
      "inputs": [
        {
          "name": "_hashId",
          "type": "string"
        },
        {
          "name": "_delivery",
          "type": "address"
        }
      ],
      "name": "sendItem",
      "outputs": [],
      "payable": false,
      "stateMutability": "nonpayable",
      "type": "function"
    },
    {
      "constant": false,
      "inputs": [
        {
          "name": "_hashId",
          "type": "string"
        }
      ],
      "name": "deliverItem",
      "outputs": [],
      "payable": false,
      "stateMutability": "nonpayable",
      "type": "function"
    },
    {
      "constant": false,
      "inputs": [
        {
          "name": "_hashId",
          "type": "string"
        }
      ],
      "name": "receiveItem",
      "outputs": [
        {
          "name": "",
          "type": "bool"
        }
      ],
      "payable": false,
      "stateMutability": "nonpayable",
      "type": "function"
    },
    {
      "constant": false,
      "inputs": [
        {
          "name": "_hashId",
          "type": "string"
        }
      ],
      "name": "cancelOrder",
      "outputs": [
        {
          "name": "",
          "type": "bool"
        }
      ],
      "payable": false,
      "stateMutability": "nonpayable",
      "type": "function"
    },
    {
      "constant": true,
      "inputs": [],
      "name": "listItems",
      "outputs": [
        {
          "name": "",
          "type": "string"
        },
        {
          "name": "",
          "type": "uint256[]"
        },
        {
          "name": "",
          "type": "address[]"
        },
        {
          "name": "",
          "type": "address[]"
        },
        {
          "name": "",
          "type": "uint8[]"
        },
        {
          "name": "",
          "type": "uint48[]"
        },
        {
          "name": "",
          "type": "uint48[]"
        }
      ],
      "payable": false,
      "stateMutability": "view",
      "type": "function"
    },
    {
      "constant": true,
      "inputs": [
        {
          "name": "hashId",
          "type": "string"
        }
      ],
      "name": "getItem",
      "outputs": [
        {
          "name": "",
          "type": "string"
        },
        {
          "name": "",
          "type": "uint256"
        },
        {
          "name": "",
          "type": "address"
        },
        {
          "name": "",
          "type": "address"
        },
        {
          "name": "",
          "type": "uint8"
        },
        {
          "name": "",
          "type": "uint48"
        },
        {
          "name": "",
          "type": "uint48"
        }
      ],
      "payable": false,
      "stateMutability": "view",
      "type": "function"
    },
    {
      "constant": true,
      "inputs": [
        {
          "name": "_hashId",
          "type": "string"
        }
      ],
      "name": "getOrderDetails",
      "outputs": [
        {
          "name": "",
          "type": "address"
        },
        {
          "name": "",
          "type": "address[]"
        },
        {
          "name": "",
          "type": "address[]"
        },
        {
          "name": "",
          "type": "string"
        },
        {
          "name": "",
          "type": "string"
        },
        {
          "name": "",
          "type": "string"
        }
      ],
      "payable": false,
      "stateMutability": "view",
      "type": "function"
    },
    {
      "constant": true,
      "inputs": [
        {
          "name": "_seller",
          "type": "address"
        }
      ],
      "name": "getItemsBySeller",
      "outputs": [
        {
          "name": "itemIds",
          "type": "string"
        }
      ],
      "payable": false,
      "stateMutability": "view",
      "type": "function"
    },
    {
      "constant": true,
      "inputs": [
        {
          "name": "_buyer",
          "type": "address"
        }
      ],
      "name": "getItemsByBuyer",
      "outputs": [
        {
          "name": "itemIds",
          "type": "string"
        }
      ],
      "payable": false,
      "stateMutability": "view",
      "type": "function"
    }
  ],
  "bytecode": "0x608060405234801561001057600080fd5b50615a3d80620000216000396000f3006080604052600436106100fb576000357c0100000000000000000000000000000000000000000000000000000000900463ffffffff16806263e670146101005780630c2c5f36146101c657806328eab0881461022f578063355eefc81461034f57806349bf3efb1461058f5780634c09280f1461064b5780634fbb487c14610705578063529903751461098257806362d6bbdf14610a0357806363fa870b14610a8e5780639117aa3414610b54578063b0c12b4e14610bbd578063b3dc00fe14610c46578063b6010fcd14610cec578063b7d5347414610e7e578063c2558ffd14610f3a578063ee72e92a14610fbb578063fa58baee14611028575b600080fd5b34801561010c57600080fd5b5061014b600480360381019080803573ffffffffffffffffffffffffffffffffffffffff1690602001909291908035906020019092919050505061112c565b6040518080602001828103825283818151815260200191508051906020019080838360005b8381101561018b578082015181840152602081019050610170565b50505050905090810190601f1680156101b85780820380516001836020036101000a031916815260200191505b509250505060405180910390f35b3480156101d257600080fd5b5061022d600480360381019080803590602001908201803590602001908080601f01602080910402602001604051908101604052809392919081815260200183838082843782019150505050505091929192905050506111f4565b005b34801561023b57600080fd5b50610244611474565b60405180806020018060200180602001848103845287818151815260200191508051906020019060200280838360005b8381101561028f578082015181840152602081019050610274565b50505050905001848103835286818151815260200191508051906020019060200280838360005b838110156102d15780820151818401526020810190506102b6565b50505050905001848103825285818151815260200191508051906020019080838360005b838110156103105780820151818401526020810190506102f5565b50505050905090810190601f16801561033d5780820380516001836020036101000a031916815260200191505b50965050505050505060405180910390f35b34801561035b57600080fd5b506103646117b7565b604051808060200180602001806020018060200180602001806020018060200188810388528f818151815260200191508051906020019080838360005b838110156103bc5780820151818401526020810190506103a1565b50505050905090810190601f1680156103e95780820380516001836020036101000a031916815260200191505b5088810387528e818151815260200191508051906020019060200280838360005b8381101561042557808201518184015260208101905061040a565b5050505090500188810386528d818151815260200191508051906020019060200280838360005b8381101561046757808201518184015260208101905061044c565b5050505090500188810385528c818151815260200191508051906020019060200280838360005b838110156104a957808201518184015260208101905061048e565b5050505090500188810384528b818151815260200191508051906020019060200280838360005b838110156104eb5780820151818401526020810190506104d0565b5050505090500188810383528a818151815260200191508051906020019060200280838360005b8381101561052d578082015181840152602081019050610512565b50505050905001888103825289818151815260200191508051906020019060200280838360005b8381101561056f578082015181840152602081019050610554565b505050509050019e50505050505050505050505050505060405180910390f35b34801561059b57600080fd5b506105d0600480360381019080803573ffffffffffffffffffffffffffffffffffffffff169060200190929190505050611e61565b6040518080602001828103825283818151815260200191508051906020019080838360005b838110156106105780820151818401526020810190506105f5565b50505050905090810190601f16801561063d5780820380516001836020036101000a031916815260200191505b509250505060405180910390f35b6106eb600480360381019080803590602001908201803590602001908080601f0160208091040260200160405190810160405280939291908181526020018383808284378201915050505050509192919290803590602001908201803590602001908080601f0160208091040260200160405190810160405280939291908181526020018383808284378201915050505050509192919290505050612079565b604051808215151515815260200191505060405180910390f35b34801561071157600080fd5b5061076c600480360381019080803590602001908201803590602001908080601f016020809104026020016040519081016040528093929190818152602001838380828437820191505050505050919291929050505061295f565b604051808773ffffffffffffffffffffffffffffffffffffffff1673ffffffffffffffffffffffffffffffffffffffff168152602001806020018060200180602001806020018060200186810386528b818151815260200191508051906020019060200280838360005b838110156107f15780820151818401526020810190506107d6565b5050505090500186810385528a818151815260200191508051906020019060200280838360005b83811015610833578082015181840152602081019050610818565b50505050905001868103845289818151815260200191508051906020019080838360005b83811015610872578082015181840152602081019050610857565b50505050905090810190601f16801561089f5780820380516001836020036101000a031916815260200191505b50868103835288818151815260200191508051906020019080838360005b838110156108d85780820151818401526020810190506108bd565b50505050905090810190601f1680156109055780820380516001836020036101000a031916815260200191505b50868103825287818151815260200191508051906020019080838360005b8381101561093e578082015181840152602081019050610923565b50505050905090810190601f16801561096b5780820380516001836020036101000a031916815260200191505b509b50505050505050505050505060405180910390f35b34801561098e57600080fd5b506109e9600480360381019080803590602001908201803590602001908080601f0160208091040260200160405190810160405280939291908181526020018383808284378201915050505050509192919290505050613338565b604051808215151515815260200191505060405180910390f35b348015610a0f57600080fd5b50610a74600480360381019080803590602001908201803590602001908080601f016020809104026020016040519081016040528093929190818152602001838380828437820191505050505050919291929080359060200190929190505050613b05565b604051808215151515815260200191505060405180910390f35b348015610a9a57600080fd5b50610ad9600480360381019080803573ffffffffffffffffffffffffffffffffffffffff16906020019092919080359060200190929190505050613f65565b6040518080602001828103825283818151815260200191508051906020019080838360005b83811015610b19578082015181840152602081019050610afe565b50505050905090810190601f168015610b465780820380516001836020036101000a031916815260200191505b509250505060405180910390f35b348015610b6057600080fd5b50610bbb600480360381019080803590602001908201803590602001908080601f016020809104026020016040519081016040528093929190818152602001838380828437820191505050505050919291929050505061402d565b005b348015610bc957600080fd5b50610c44600480360381019080803590602001908201803590602001908080601f0160208091040260200160405190810160405280939291908181526020018383808284378201915050505050509192919290803573ffffffffffffffffffffffffffffffffffffffff169060200190929190505050614217565b005b348015610c5257600080fd5b50610c71600480360381019080803590602001909291905050506146b6565b6040518080602001828103825283818151815260200191508051906020019080838360005b83811015610cb1578082015181840152602081019050610c96565b50505050905090810190601f168015610cde5780820380516001836020036101000a031916815260200191505b509250505060405180910390f35b348015610cf857600080fd5b50610d53600480360381019080803590602001908201803590602001908080601f0160208091040260200160405190810160405280939291908181526020018383808284378201915050505050509192919290505050614771565b60405180806020018881526020018773ffffffffffffffffffffffffffffffffffffffff1673ffffffffffffffffffffffffffffffffffffffff1681526020018673ffffffffffffffffffffffffffffffffffffffff1673ffffffffffffffffffffffffffffffffffffffff168152602001856004811115610dd157fe5b60ff1681526020018465ffffffffffff1665ffffffffffff1681526020018365ffffffffffff1665ffffffffffff168152602001828103825289818151815260200191508051906020019080838360005b83811015610e3d578082015181840152602081019050610e22565b50505050905090810190601f168015610e6a5780820380516001836020036101000a031916815260200191505b509850505050505050505060405180910390f35b348015610e8a57600080fd5b50610ebf600480360381019080803573ffffffffffffffffffffffffffffffffffffffff169060200190929190505050614aa1565b6040518080602001828103825283818151815260200191508051906020019080838360005b83811015610eff578082015181840152602081019050610ee4565b50505050905090810190601f168015610f2c5780820380516001836020036101000a031916815260200191505b509250505060405180910390f35b348015610f4657600080fd5b50610fa1600480360381019080803590602001908201803590602001908080601f0160208091040260200160405190810160405280939291908181526020018383808284378201915050505050509192919290505050614cbc565b604051808215151515815260200191505060405180910390f35b348015610fc757600080fd5b50610fe66004803603810190808035906020019092919050505061534c565b604051808273ffffffffffffffffffffffffffffffffffffffff1673ffffffffffffffffffffffffffffffffffffffff16815260200191505060405180910390f35b34801561103457600080fd5b50611069600480360381019080803573ffffffffffffffffffffffffffffffffffffffff16906020019092919050505061538a565b604051808473ffffffffffffffffffffffffffffffffffffffff1673ffffffffffffffffffffffffffffffffffffffff1681526020018360038111156110ab57fe5b60ff16815260200180602001828103825283818151815260200191508051906020019080838360005b838110156110ef5780820151818401526020810190506110d4565b50505050905090810190601f16801561111c5780820380516001836020036101000a031916815260200191505b5094505050505060405180910390f35b60006020528160005260406000208181548110151561114757fe5b90600052602060002001600091509150508054600181600116156101000203166002900480601f0160208091040260200160405190810160405280929190818152602001828054600181600116156101000203166002900480156111ec5780601f106111c1576101008083540402835291602001916111ec565b820191906000526020600020905b8154815290600101906020018083116111cf57829003601f168201915b505050505081565b60006002600481111561120357fe5b6003836040518082805190602001908083835b60208310151561123b5780518252602082019150602081019050602083039250611216565b6001836020036101000a038019825116818451168082178552505050505050905001915050908152602001604051809103902060000160009054906101000a900460ff16600481111561128a57fe5b14151561129657600080fd5b6004826040518082805190602001908083835b6020831015156112ce57805182526020820191506020810190506020830392506112a9565b6001836020036101000a038019825116818451168082178552505050505050905001915050908152602001604051809103902060016004846040518082805190602001908083835b60208310151561133b5780518252602082019150602081019050602083039250611316565b6001836020036101000a0380198251168184511680821785525050505050509050019150509081526020016040518091039020805490500381548110151561137f57fe5b906000526020600020906005020190506001600481111561139c57fe5b8160000160009054906101000a900460ff1660048111156113b957fe5b1415156113c557600080fd5b3373ffffffffffffffffffffffffffffffffffffffff168160010160009054906101000a900473ffffffffffffffffffffffffffffffffffffffff1673ffffffffffffffffffffffffffffffffffffffff1614151561142357600080fd5b428160020160006101000a81548165ffffffffffff021916908365ffffffffffff16021790555060028160000160006101000a81548160ff0219169083600481111561146b57fe5b02179055505050565b60608060608060006006805490506040519080825280602002602001820160405280156114b05781602001602082028038833980820191505090505b509150600090505b60068054905081101561171e57600760006006838154811015156114d857fe5b9060005260206000200160009054906101000a900473ffffffffffffffffffffffffffffffffffffffff1673ffffffffffffffffffffffffffffffffffffffff1673ffffffffffffffffffffffffffffffffffffffff16815260200190815260200160002060000160009054906101000a900460ff16828281518110151561155c57fe5b90602001906020020190600381111561157157fe5b9081600381111561157e57fe5b8152505061170f6116a16007600060068581548110151561159b57fe5b9060005260206000200160009054906101000a900473ffffffffffffffffffffffffffffffffffffffff1673ffffffffffffffffffffffffffffffffffffffff1673ffffffffffffffffffffffffffffffffffffffff1681526020019081526020016000206001018054600181600116156101000203166002900480601f0160208091040260200160405190810160405280929190818152602001828054600181600116156101000203166002900480156116975780601f1061166c57610100808354040283529160200191611697565b820191906000526020600020905b81548152906001019060200180831161167a57829003601f168201915b505050505061552d565b6117016116fc6116e56040805190810160405280600881526020017f2d2d4c494e452d2d00000000000000000000000000000000000000000000000081525061552d565b6116ee8861552d565b61555b90919063ffffffff16565b61552d565b61555b90919063ffffffff16565b925080806001019150506114b8565b60068284828054806020026020016040519081016040528092919081815260200182805480156117a357602002820191906000526020600020905b8160009054906101000a900473ffffffffffffffffffffffffffffffffffffffff1673ffffffffffffffffffffffffffffffffffffffff1681526020019060010190808311611759575b505050505092509450945094505050909192565b606080606080606080606080606080606080606060006002805490506040519080825280602002602001820160405280156118015781602001602082028038833980820191505090505b5096506002805490506040519080825280602002602001820160405280156118385781602001602082028038833980820191505090505b50955060028054905060405190808252806020026020018201604052801561186f5781602001602082028038833980820191505090505b5094506002805490506040519080825280602002602001820160405280156118a65781602001602082028038833980820191505090505b5093506002805490506040519080825280602002602001820160405280156118dd5781602001602082028038833980820191505090505b5092506002805490506040519080825280602002602001820160405280156119145781602001602082028038833980820191505090505b509150600090505b600280549050811015611e3557600360028281548110151561193a57fe5b90600052602060002001604051808280546001816001161561010002031660029004801561199f5780601f1061197d57610100808354040283529182019161199f565b820191906000526020600020905b81548152906001019060200180831161198b575b505091505090815260200160405180910390206001015487828151811015156119c457fe5b906020019060200201818152505060036002828154811015156119e357fe5b906000526020600020016040518082805460018160011615610100020316600290048015611a485780601f10611a26576101008083540402835291820191611a48565b820191906000526020600020905b815481529060010190602001808311611a34575b5050915050908152602001604051809103902060020160009054906101000a900473ffffffffffffffffffffffffffffffffffffffff168382815181101515611a8d57fe5b9060200190602002019073ffffffffffffffffffffffffffffffffffffffff16908173ffffffffffffffffffffffffffffffffffffffff16815250506003600282815481101515611ada57fe5b906000526020600020016040518082805460018160011615610100020316600290048015611b3f5780601f10611b1d576101008083540402835291820191611b3f565b820191906000526020600020905b815481529060010190602001808311611b2b575b5050915050908152602001604051809103902060030160009054906101000a900473ffffffffffffffffffffffffffffffffffffffff168482815181101515611b8457fe5b9060200190602002019073ffffffffffffffffffffffffffffffffffffffff16908173ffffffffffffffffffffffffffffffffffffffff16815250506003600282815481101515611bd157fe5b906000526020600020016040518082805460018160011615610100020316600290048015611c365780601f10611c14576101008083540402835291820191611c36565b820191906000526020600020905b815481529060010190602001808311611c22575b5050915050908152602001604051809103902060000160009054906101000a900460ff168282815181101515611c6857fe5b906020019060200201906004811115611c7d57fe5b90816004811115611c8a57fe5b815250506003600282815481101515611c9f57fe5b906000526020600020016040518082805460018160011615610100020316600290048015611d045780601f10611ce2576101008083540402835291820191611d04565b820191906000526020600020905b815481529060010190602001808311611cf0575b5050915050908152602001604051809103902060000160019054906101000a900465ffffffffffff168682815181101515611d3b57fe5b9060200190602002019065ffffffffffff16908165ffffffffffff16815250506003600282815481101515611d6c57fe5b906000526020600020016040518082805460018160011615610100020316600290048015611dd15780601f10611daf576101008083540402835291820191611dd1565b820191906000526020600020905b815481529060010190602001808311611dbd575b5050915050908152602001604051809103902060000160079054906101000a900465ffffffffffff168582815181101515611e0857fe5b9060200190602002019065ffffffffffff16908165ffffffffffff1681525050808060010191505061191c565b611e3d6155dd565b878486858a8a9d509d509d509d509d509d509d505050505050505090919293949596565b60606000806000808573ffffffffffffffffffffffffffffffffffffffff1673ffffffffffffffffffffffffffffffffffffffff16815260200190815260200160002080549050111561207357600090505b6000808473ffffffffffffffffffffffffffffffffffffffff1673ffffffffffffffffffffffffffffffffffffffff1681526020019081526020016000208054905081101561207257612063611ff56000808673ffffffffffffffffffffffffffffffffffffffff1673ffffffffffffffffffffffffffffffffffffffff16815260200190815260200160002083815481101515611f4d57fe5b906000526020600020018054600181600116156101000203166002900480601f016020809104026020016040519081016040528092919081815260200182805460018160011615610100020316600290048015611feb5780601f10611fc057610100808354040283529160200191611feb565b820191906000526020600020905b815481529060010190602001808311611fce57829003601f168201915b505050505061552d565b6120556120506120396040805190810160405280600881526020017f2d2d4c494e452d2d00000000000000000000000000000000000000000000000081525061552d565b6120428761552d565b61555b90919063ffffffff16565b61552d565b61555b90919063ffffffff16565b91508080600101915050611eb3565b5b50919050565b60006003836040518082805190602001908083835b6020831015156120b3578051825260208201915060208101905060208303925061208e565b6001836020036101000a038019825116818451168082178552505050505050905001915050908152602001604051809103902060020160009054906101000a900473ffffffffffffffffffffffffffffffffffffffff1673ffffffffffffffffffffffffffffffffffffffff163373ffffffffffffffffffffffffffffffffffffffff161415151561214457600080fd5b6003836040518082805190602001908083835b60208310151561217c5780518252602082019150602081019050602083039250612157565b6001836020036101000a038019825116818451168082178552505050505050905001915050908152602001604051809103902060010154341415156121c057600080fd5b600160048111156121cd57fe5b6003846040518082805190602001908083835b60208310151561220557805182526020820191506020810190506020830392506121e0565b6001836020036101000a038019825116818451168082178552505050505050905001915050908152602001604051809103902060000160009054906101000a900460ff16600481111561225457fe5b14151561226057600080fd5b60026003846040518082805190602001908083835b60208310151561229a5780518252602082019150602081019050602083039250612275565b6001836020036101000a038019825116818451168082178552505050505050905001915050908152602001604051809103902060000160006101000a81548160ff021916908360048111156122eb57fe5b0217905550336003846040518082805190602001908083835b6020831015156123295780518252602082019150602081019050602083039250612304565b6001836020036101000a038019825116818451168082178552505050505050905001915050908152602001604051809103902060030160006101000a81548173ffffffffffffffffffffffffffffffffffffffff021916908373ffffffffffffffffffffffffffffffffffffffff160217905550600160003373ffffffffffffffffffffffffffffffffffffffff1673ffffffffffffffffffffffffffffffffffffffff1681526020019081526020016000208390806001815401808255809150509060018203906000526020600020016000909192909190915090805190602001906124179291906158d2565b505034600560003373ffffffffffffffffffffffffffffffffffffffff1673ffffffffffffffffffffffffffffffffffffffff168152602001908152602001600020600082825401925050819055506004836040518082805190602001908083835b60208310151561249e5780518252602082019150602081019050602083039250612479565b6001836020036101000a038019825116818451168082178552505050505050905001915050908152602001604051809103902061012060405190810160405280600060048111156124eb57fe5b81526020013373ffffffffffffffffffffffffffffffffffffffff1681526020016003866040518082805190602001908083835b602083101515612544578051825260208201915060208101905060208303925061251f565b6001836020036101000a038019825116818451168082178552505050505050905001915050908152602001604051809103902060020160009054906101000a900473ffffffffffffffffffffffffffffffffffffffff1673ffffffffffffffffffffffffffffffffffffffff1681526020014265ffffffffffff168152602001600065ffffffffffff168152602001600065ffffffffffff168152602001600065ffffffffffff168152602001858152602001848152509080600181540180825580915050906001820390600052602060002090600502016000909192909190915060008201518160000160006101000a81548160ff0219169083600481111561264a57fe5b021790555060208201518160000160016101000a81548173ffffffffffffffffffffffffffffffffffffffff021916908373ffffffffffffffffffffffffffffffffffffffff16021790555060408201518160010160006101000a81548173ffffffffffffffffffffffffffffffffffffffff021916908373ffffffffffffffffffffffffffffffffffffffff16021790555060608201518160010160146101000a81548165ffffffffffff021916908365ffffffffffff160217905550608082015181600101601a6101000a81548165ffffffffffff021916908365ffffffffffff16021790555060a08201518160020160006101000a81548165ffffffffffff021916908365ffffffffffff16021790555060c08201518160020160066101000a81548165ffffffffffff021916908365ffffffffffff16021790555060e08201518160030190805190602001906127a5929190615952565b506101008201518160040190805190602001906127c3929190615952565b505050507f8db6092015cdbd48ab3436f57e2e2666b41487c82cc57e7eeff37cfe26fe93ba836003856040518082805190602001908083835b60208310151561282157805182526020820191506020810190506020830392506127fc565b6001836020036101000a038019825116818451168082178552505050505050905001915050908152602001604051809103902060020160009054906101000a900473ffffffffffffffffffffffffffffffffffffffff163360405180806020018473ffffffffffffffffffffffffffffffffffffffff1673ffffffffffffffffffffffffffffffffffffffff1681526020018373ffffffffffffffffffffffffffffffffffffffff1673ffffffffffffffffffffffffffffffffffffffff168152602001828103825285818151815260200191508051906020019080838360005b8381101561291d578082015181840152602081019050612902565b50505050905090810190601f16801561294a5780820380516001836020036101000a031916815260200191505b5094505050505060405180910390a192915050565b60006060806060806060806060806060806060600060048e6040518082805190602001908083835b6020831015156129ac5780518252602082019150602081019050602083039250612987565b6001836020036101000a0380198251168184511680821785525050505050509050019150509081526020016040518091039020805480602002602001604051908101604052809291908181526020016000905b82821015612d00578382906000526020600020906005020161012060405190810160405290816000820160009054906101000a900460ff166004811115612a4257fe5b6004811115612a4d57fe5b81526020016000820160019054906101000a900473ffffffffffffffffffffffffffffffffffffffff1673ffffffffffffffffffffffffffffffffffffffff1673ffffffffffffffffffffffffffffffffffffffff1681526020016001820160009054906101000a900473ffffffffffffffffffffffffffffffffffffffff1673ffffffffffffffffffffffffffffffffffffffff1673ffffffffffffffffffffffffffffffffffffffff1681526020016001820160149054906101000a900465ffffffffffff1665ffffffffffff1665ffffffffffff16815260200160018201601a9054906101000a900465ffffffffffff1665ffffffffffff1665ffffffffffff1681526020016002820160009054906101000a900465ffffffffffff1665ffffffffffff1665ffffffffffff1681526020016002820160069054906101000a900465ffffffffffff1665ffffffffffff1665ffffffffffff168152602001600382018054600181600116156101000203166002900480601f016020809104026020016040519081016040528092919081815260200182805460018160011615610100020316600290048015612c465780601f10612c1b57610100808354040283529160200191612c46565b820191906000526020600020905b815481529060010190602001808311612c2957829003601f168201915b50505050508152602001600482018054600181600116156101000203166002900480601f016020809104026020016040519081016040528092919081815260200182805460018160011615610100020316600290048015612ce85780601f10612cbd57610100808354040283529160200191612ce8565b820191906000526020600020905b815481529060010190602001808311612ccb57829003601f168201915b505050505081525050815260200190600101906129ff565b5050505096508651604051908082528060200260200182016040528015612d365781602001602082028038833980820191505090505b5092508651604051908082528060200260200182016040528015612d695781602001602082028038833980820191505090505b509150600090505b8651811015613288578681815181101515612d8857fe5b90602001906020020151602001518382815181101515612da457fe5b9060200190602002019073ffffffffffffffffffffffffffffffffffffffff16908173ffffffffffffffffffffffffffffffffffffffff16815250508681815181101515612dee57fe5b90602001906020020151604001518282815181101515612e0a57fe5b9060200190602002019073ffffffffffffffffffffffffffffffffffffffff16908173ffffffffffffffffffffffffffffffffffffffff1681525050612edc612e6e8883815181101515612e5a57fe5b90602001906020020151610100015161552d565b612ece612ec9612eb26040805190810160405280600881526020017f2d2d4c494e452d2d00000000000000000000000000000000000000000000000081525061552d565b612ebb8b61552d565b61555b90919063ffffffff16565b61552d565b61555b90919063ffffffff16565b9550612fda612f1f6040805190810160405280600481526020017f2d42522d0000000000000000000000000000000000000000000000000000000081525061552d565b612fcc612fc7612f59612f548c87815181101515612f3957fe5b906020019060200201516060015165ffffffffffff16615730565b61552d565b612fb9612fb4612f9d6040805190810160405280600881526020017f2d2d4c494e452d2d00000000000000000000000000000000000000000000000081525061552d565b612fa68d61552d565b61555b90919063ffffffff16565b61552d565b61555b90919063ffffffff16565b61552d565b61555b90919063ffffffff16565b945061308161301d6040805190810160405280600481526020017f2d42522d0000000000000000000000000000000000000000000000000000000081525061552d565b61307361306e6130576130528c8781518110151561303757fe5b906020019060200201516080015165ffffffffffff16615730565b61552d565b6130608a61552d565b61555b90919063ffffffff16565b61552d565b61555b90919063ffffffff16565b94506131286130c46040805190810160405280600481526020017f2d42522d0000000000000000000000000000000000000000000000000000000081525061552d565b61311a6131156130fe6130f98c878151811015156130de57fe5b9060200190602002015160a0015165ffffffffffff16615730565b61552d565b6131078a61552d565b61555b90919063ffffffff16565b61552d565b61555b90919063ffffffff16565b94506131cf61316b6040805190810160405280600481526020017f2d42522d0000000000000000000000000000000000000000000000000000000081525061552d565b6131c16131bc6131a56131a08c8781518110151561318557fe5b9060200190602002015160c0015165ffffffffffff16615730565b61552d565b6131ae8a61552d565b61555b90919063ffffffff16565b61552d565b61555b90919063ffffffff16565b945061327961320b61320689848151811015156131e857fe5b9060200190602002015160000151600481111561320157fe5b615730565b61552d565b61326b61326661324f6040805190810160405280600881526020017f2d2d4c494e452d2d00000000000000000000000000000000000000000000000081525061552d565b6132588961552d565b61555b90919063ffffffff16565b61552d565b61555b90919063ffffffff16565b93508080600101915050612d71565b60038e6040518082805190602001908083835b6020831015156132c0578051825260208201915060208101905060208303925061329b565b6001836020036101000a038019825116818451168082178552505050505050905001915050908152602001604051809103902060020160009054906101000a900473ffffffffffffffffffffffffffffffffffffffff1683838888889c509c509c509c509c509c505050505050505091939550919395565b600080823373ffffffffffffffffffffffffffffffffffffffff166003826040518082805190602001908083835b60208310151561338b5780518252602082019150602081019050602083039250613366565b6001836020036101000a038019825116818451168082178552505050505050905001915050908152602001604051809103902060030160009054906101000a900473ffffffffffffffffffffffffffffffffffffffff1673ffffffffffffffffffffffffffffffffffffffff1614151561340457600080fd5b60006004826040518082805190602001908083835b60208310151561343e5780518252602082019150602081019050602083039250613419565b6001836020036101000a03801982511681845116808217855250505050505090500191505090815260200160405180910390208054905011151561348157600080fd5b6004846040518082805190602001908083835b6020831015156134b95780518252602082019150602081019050602083039250613494565b6001836020036101000a038019825116818451168082178552505050505050905001915050908152602001604051809103902060016004866040518082805190602001908083835b6020831015156135265780518252602082019150602081019050602083039250613501565b6001836020036101000a0380198251168184511680821785525050505050509050019150509081526020016040518091039020805490500381548110151561356a57fe5b906000526020600020906005020191503373ffffffffffffffffffffffffffffffffffffffff168260000160019054906101000a900473ffffffffffffffffffffffffffffffffffffffff1673ffffffffffffffffffffffffffffffffffffffff161415156135d857600080fd5b60006003856040518082805190602001908083835b60208310151561361257805182526020820191506020810190506020830392506135ed565b6001836020036101000a038019825116818451168082178552505050505050905001915050908152602001604051809103902060020160009054906101000a900473ffffffffffffffffffffffffffffffffffffffff1673ffffffffffffffffffffffffffffffffffffffff161415151561368c57600080fd5b60038260000160006101000a81548160ff021916908360048111156136ad57fe5b0217905550428260020160066101000a81548165ffffffffffff021916908365ffffffffffff160217905550426003856040518082805190602001908083835b60208310151561371257805182526020820191506020810190506020830392506136ed565b6001836020036101000a038019825116818451168082178552505050505050905001915050908152602001604051809103902060000160076101000a81548165ffffffffffff021916908365ffffffffffff1602179055506003846040518082805190602001908083835b6020831015156137a2578051825260208201915060208101905060208303925061377d565b6001836020036101000a038019825116818451168082178552505050505050905001915050908152602001604051809103902060020160009054906101000a900473ffffffffffffffffffffffffffffffffffffffff1673ffffffffffffffffffffffffffffffffffffffff166108fc6003866040518082805190602001908083835b60208310151561384a5780518252602082019150602081019050602083039250613825565b6001836020036101000a0380198251168184511680821785525050505050509050019150509081526020016040518091039020600101549081150290604051600060405180830381858888f193505050501580156138ac573d6000803e3d6000fd5b506003846040518082805190602001908083835b6020831015156138e557805182526020820191506020810190506020830392506138c0565b6001836020036101000a038019825116818451168082178552505050505050905001915050908152602001604051809103902060010154600560003373ffffffffffffffffffffffffffffffffffffffff1673ffffffffffffffffffffffffffffffffffffffff168152602001908152602001600020600082825403925050819055507f400ee448d94b5e51fa657a1fd4a82034ccf7633091086dc844e715c29bc7607e846003866040518082805190602001908083835b6020831015156139c2578051825260208201915060208101905060208303925061399d565b6001836020036101000a038019825116818451168082178552505050505050905001915050908152602001604051809103902060020160009054906101000a900473ffffffffffffffffffffffffffffffffffffffff163360405180806020018473ffffffffffffffffffffffffffffffffffffffff1673ffffffffffffffffffffffffffffffffffffffff1681526020018373ffffffffffffffffffffffffffffffffffffffff1673ffffffffffffffffffffffffffffffffffffffff168152602001828103825285818151815260200191508051906020019080838360005b83811015613abe578082015181840152602081019050613aa3565b50505050905090810190601f168015613aeb5780820380516001836020036101000a031916815260200191505b5094505050505060405180910390a1600192505050919050565b60008082111515613b1557600080fd5b60006004811115613b2257fe5b6003846040518082805190602001908083835b602083101515613b5a5780518252602082019150602081019050602083039250613b35565b6001836020036101000a038019825116818451168082178552505050505050905001915050908152602001604051809103902060000160009054906101000a900460ff166004811115613ba957fe5b141515613bb557600080fd5b6002839080600181540180825580915050906001820390600052602060002001600090919290919091509080519060200190613bf29291906158d2565b505060e06040519081016040528060016004811115613c0d57fe5b81526020014265ffffffffffff168152602001600065ffffffffffff1681526020018381526020013373ffffffffffffffffffffffffffffffffffffffff168152602001600073ffffffffffffffffffffffffffffffffffffffff168152602001848152506003846040518082805190602001908083835b602083101515613caa5780518252602082019150602081019050602083039250613c85565b6001836020036101000a038019825116818451168082178552505050505050905001915050908152602001604051809103902060008201518160000160006101000a81548160ff02191690836004811115613d0157fe5b021790555060208201518160000160016101000a81548165ffffffffffff021916908365ffffffffffff16021790555060408201518160000160076101000a81548165ffffffffffff021916908365ffffffffffff1602179055506060820151816001015560808201518160020160006101000a81548173ffffffffffffffffffffffffffffffffffffffff021916908373ffffffffffffffffffffffffffffffffffffffff16021790555060a08201518160030160006101000a81548173ffffffffffffffffffffffffffffffffffffffff021916908373ffffffffffffffffffffffffffffffffffffffff16021790555060c0820151816004019080519060200190613e10929190615952565b509050506000803373ffffffffffffffffffffffffffffffffffffffff1673ffffffffffffffffffffffffffffffffffffffff168152602001908152602001600020839080600181540180825580915050906001820390600052602060002001600090919290919091509080519060200190613e8d9291906158d2565b50507fa05c9a3bce37f2c7a8e34713a79b236f68f7b17770b8fe687adf6c02f15ee86e833360405180806020018373ffffffffffffffffffffffffffffffffffffffff1673ffffffffffffffffffffffffffffffffffffffff168152602001828103825284818151815260200191508051906020019080838360005b83811015613f24578082015181840152602081019050613f09565b50505050905090810190601f168015613f515780820380516001836020036101000a031916815260200191505b50935050505060405180910390a192915050565b600160205281600052604060002081815481101515613f8057fe5b90600052602060002001600091509150508054600181600116156101000203166002900480601f0160208091040260200160405190810160405280929190818152602001828054600181600116156101000203166002900480156140255780601f10613ffa57610100808354040283529160200191614025565b820191906000526020600020905b81548152906001019060200180831161400857829003601f168201915b505050505081565b6000600381111561403a57fe5b600760003373ffffffffffffffffffffffffffffffffffffffff1673ffffffffffffffffffffffffffffffffffffffff16815260200190815260200160002060000160009054906101000a900460ff16600381111561409557fe5b1415156140a157600080fd5b606060405190810160405280600160038111156140ba57fe5b81526020013373ffffffffffffffffffffffffffffffffffffffff16815260200182815250600760003373ffffffffffffffffffffffffffffffffffffffff1673ffffffffffffffffffffffffffffffffffffffff16815260200190815260200160002060008201518160000160006101000a81548160ff0219169083600381111561414257fe5b021790555060208201518160000160016101000a81548173ffffffffffffffffffffffffffffffffffffffff021916908373ffffffffffffffffffffffffffffffffffffffff16021790555060408201518160010190805190602001906141aa929190615952565b5090505060063390806001815401808255809150509060018203906000526020600020016000909192909190916101000a81548173ffffffffffffffffffffffffffffffffffffffff021916908373ffffffffffffffffffffffffffffffffffffffff1602179055505050565b6000823373ffffffffffffffffffffffffffffffffffffffff166003826040518082805190602001908083835b6020831015156142695780518252602082019150602081019050602083039250614244565b6001836020036101000a038019825116818451168082178552505050505050905001915050908152602001604051809103902060020160009054906101000a900473ffffffffffffffffffffffffffffffffffffffff1673ffffffffffffffffffffffffffffffffffffffff161415156142e257600080fd5b60006004856040518082805190602001908083835b60208310151561431c57805182526020820191506020810190506020830392506142f7565b6001836020036101000a03801982511681845116808217855250505050505090500191505090815260200160405180910390208054905011151561435f57600080fd5b6004846040518082805190602001908083835b6020831015156143975780518252602082019150602081019050602083039250614372565b6001836020036101000a038019825116818451168082178552505050505050905001915050908152602001604051809103902060016004866040518082805190602001908083835b60208310151561440457805182526020820191506020810190506020830392506143df565b6001836020036101000a0380198251168184511680821785525050505050509050019150509081526020016040518091039020805490500381548110151561444857fe5b906000526020600020906005020191506000600481111561446557fe5b8260000160009054906101000a900460ff16600481111561448257fe5b14151561448e57600080fd5b828260010160006101000a81548173ffffffffffffffffffffffffffffffffffffffff021916908373ffffffffffffffffffffffffffffffffffffffff1602179055504282600101601a6101000a81548165ffffffffffff021916908365ffffffffffff16021790555060018260000160006101000a81548160ff0219169083600481111561451957fe5b02179055507f1f4a11d8c37cf5e338c309510a64f8e18293184b518b3e3fc797ec7e5da1d0a8846003866040518082805190602001908083835b6020831015156145785780518252602082019150602081019050602083039250614553565b6001836020036101000a038019825116818451168082178552505050505050905001915050908152602001604051809103902060020160009054906101000a900473ffffffffffffffffffffffffffffffffffffffff168560405180806020018473ffffffffffffffffffffffffffffffffffffffff1673ffffffffffffffffffffffffffffffffffffffff1681526020018373ffffffffffffffffffffffffffffffffffffffff1673ffffffffffffffffffffffffffffffffffffffff168152602001828103825285818151815260200191508051906020019080838360005b83811015614674578082015181840152602081019050614659565b50505050905090810190601f1680156146a15780820380516001836020036101000a031916815260200191505b5094505050505060405180910390a150505050565b6002818154811015156146c557fe5b906000526020600020016000915090508054600181600116156101000203166002900480601f0160208091040260200160405190810160405280929190818152602001828054600181600116156101000203166002900480156147695780601f1061473e57610100808354040283529160200191614769565b820191906000526020600020905b81548152906001019060200180831161474c57829003601f168201915b505050505081565b6060600080600080600080876003896040518082805190602001908083835b6020831015156147b55780518252602082019150602081019050602083039250614790565b6001836020036101000a03801982511681845116808217855250505050505090500191505090815260200160405180910390206001015460038a6040518082805190602001908083835b60208310151561482457805182526020820191506020810190506020830392506147ff565b6001836020036101000a038019825116818451168082178552505050505050905001915050908152602001604051809103902060020160009054906101000a900473ffffffffffffffffffffffffffffffffffffffff1660038b6040518082805190602001908083835b6020831015156148b3578051825260208201915060208101905060208303925061488e565b6001836020036101000a038019825116818451168082178552505050505050905001915050908152602001604051809103902060030160009054906101000a900473ffffffffffffffffffffffffffffffffffffffff1660038c6040518082805190602001908083835b602083101515614942578051825260208201915060208101905060208303925061491d565b6001836020036101000a038019825116818451168082178552505050505050905001915050908152602001604051809103902060000160009054906101000a900460ff1660038d6040518082805190602001908083835b6020831015156149be5780518252602082019150602081019050602083039250614999565b6001836020036101000a038019825116818451168082178552505050505050905001915050908152602001604051809103902060000160019054906101000a900465ffffffffffff1660038e6040518082805190602001908083835b602083101515614a3f5780518252602082019150602081019050602083039250614a1a565b6001836020036101000a038019825116818451168082178552505050505050905001915050908152602001604051809103902060000160079054906101000a900465ffffffffffff169650965096509650965096509650919395979092949650565b6060600080600160008573ffffffffffffffffffffffffffffffffffffffff1673ffffffffffffffffffffffffffffffffffffffff168152602001908152602001600020805490501115614cb657600090505b600160008473ffffffffffffffffffffffffffffffffffffffff1673ffffffffffffffffffffffffffffffffffffffff16815260200190815260200160002080549050811015614cb557614ca6614c38600160008673ffffffffffffffffffffffffffffffffffffffff1673ffffffffffffffffffffffffffffffffffffffff16815260200190815260200160002083815481101515614b9057fe5b906000526020600020018054600181600116156101000203166002900480601f016020809104026020016040519081016040528092919081815260200182805460018160011615610100020316600290048015614c2e5780601f10614c0357610100808354040283529160200191614c2e565b820191906000526020600020905b815481529060010190602001808311614c1157829003601f168201915b505050505061552d565b614c98614c93614c7c6040805190810160405280600881526020017f2d2d4c494e452d2d00000000000000000000000000000000000000000000000081525061552d565b614c858761552d565b61555b90919063ffffffff16565b61552d565b61555b90919063ffffffff16565b91508080600101915050614af4565b5b50919050565b600080823373ffffffffffffffffffffffffffffffffffffffff166003826040518082805190602001908083835b602083101515614d0f5780518252602082019150602081019050602083039250614cea565b6001836020036101000a038019825116818451168082178552505050505050905001915050908152602001604051809103902060030160009054906101000a900473ffffffffffffffffffffffffffffffffffffffff1673ffffffffffffffffffffffffffffffffffffffff161480614e4157503373ffffffffffffffffffffffffffffffffffffffff166003826040518082805190602001908083835b602083101515614dd25780518252602082019150602081019050602083039250614dad565b6001836020036101000a038019825116818451168082178552505050505050905001915050908152602001604051809103902060020160009054906101000a900473ffffffffffffffffffffffffffffffffffffffff1673ffffffffffffffffffffffffffffffffffffffff16145b1515614e4c57600080fd5b60006004826040518082805190602001908083835b602083101515614e865780518252602082019150602081019050602083039250614e61565b6001836020036101000a038019825116818451168082178552505050505050905001915050908152602001604051809103902080549050111515614ec957600080fd5b6004846040518082805190602001908083835b602083101515614f015780518252602082019150602081019050602083039250614edc565b6001836020036101000a038019825116818451168082178552505050505050905001915050908152602001604051809103902060016004866040518082805190602001908083835b602083101515614f6e5780518252602082019150602081019050602083039250614f49565b6001836020036101000a03801982511681845116808217855250505050505090500191505090815260200160405180910390208054905003815481101515614fb257fe5b9060005260206000209060050201915060036004811115614fcf57fe5b8260000160009054906101000a900460ff166004811115614fec57fe5b1415801561502257506002600481111561500257fe5b8260000160009054906101000a900460ff16600481111561501f57fe5b14155b8015615055575060048081111561503557fe5b8260000160009054906101000a900460ff16600481111561505257fe5b14155b151561506057600080fd5b6003846040518082805190602001908083835b6020831015156150985780518252602082019150602081019050602083039250615073565b6001836020036101000a038019825116818451168082178552505050505050905001915050908152602001604051809103902060010154600560003373ffffffffffffffffffffffffffffffffffffffff1673ffffffffffffffffffffffffffffffffffffffff1681526020019081526020016000205411151561511b57600080fd5b60048260000160006101000a81548160ff0219169083600481111561513c57fe5b021790555060016003856040518082805190602001908083835b60208310151561517b5780518252602082019150602081019050602083039250615156565b6001836020036101000a038019825116818451168082178552505050505050905001915050908152602001604051809103902060000160006101000a81548160ff021916908360048111156151cc57fe5b02179055503373ffffffffffffffffffffffffffffffffffffffff166108fc6003866040518082805190602001908083835b60208310151561522357805182526020820191506020810190506020830392506151fe565b6001836020036101000a0380198251168184511680821785525050505050509050019150509081526020016040518091039020600101549081150290604051600060405180830381858888f19350505050158015615285573d6000803e3d6000fd5b506003846040518082805190602001908083835b6020831015156152be5780518252602082019150602081019050602083039250615299565b6001836020036101000a038019825116818451168082178552505050505050905001915050908152602001604051809103902060010154600560003373ffffffffffffffffffffffffffffffffffffffff1673ffffffffffffffffffffffffffffffffffffffff16815260200190815260200160002060008282540392505081905550600192505050919050565b60068181548110151561535b57fe5b906000526020600020016000915054906101000a900473ffffffffffffffffffffffffffffffffffffffff1681565b6000806060600760008573ffffffffffffffffffffffffffffffffffffffff1673ffffffffffffffffffffffffffffffffffffffff16815260200190815260200160002060000160019054906101000a900473ffffffffffffffffffffffffffffffffffffffff16600760008673ffffffffffffffffffffffffffffffffffffffff1673ffffffffffffffffffffffffffffffffffffffff16815260200190815260200160002060000160009054906101000a900460ff16600760008773ffffffffffffffffffffffffffffffffffffffff1673ffffffffffffffffffffffffffffffffffffffff168152602001908152602001600020600101808054600181600116156101000203166002900480601f0160208091040260200160405190810160405280929190818152602001828054600181600116156101000203166002900480156155195780601f106154ee57610100808354040283529160200191615519565b820191906000526020600020905b8154815290600101906020018083116154fc57829003601f168201915b505050505090509250925092509193909250565b6155356159d2565b600060208301905060408051908101604052808451815260200182815250915050919050565b606080600083600001518560000151016040519080825280601f01601f19166020018201604052801561559d5781602001602082028038833980820191505090505b5091506020820190506155b98186602001518760000151615887565b6155d28560000151820185602001518660000151615887565b819250505092915050565b606060008090505b60028054905081101561572c5761571d6156af60028381548110151561560757fe5b906000526020600020018054600181600116156101000203166002900480601f0160208091040260200160405190810160405280929190818152602001828054600181600116156101000203166002900480156156a55780601f1061567a576101008083540402835291602001916156a5565b820191906000526020600020905b81548152906001019060200180831161568857829003601f168201915b505050505061552d565b61570f61570a6156f36040805190810160405280600881526020017f2d2d4c494e452d2d00000000000000000000000000000000000000000000000081525061552d565b6156fc8761552d565b61555b90919063ffffffff16565b61552d565b61555b90919063ffffffff16565b915080806001019150506155e5565b5090565b6060600080606060008086141561577e576040805190810160405280600181526020017f3000000000000000000000000000000000000000000000000000000000000000815250945061587e565b8593505b6000841415156157a8578280600101935050600a848115156157a057fe5b049350615782565b826040519080825280601f01601f1916602001820160405280156157db5781602001602082028038833980820191505090505b5091506001830390505b60008614151561587a57600a868115156157fb57fe5b066030017f01000000000000000000000000000000000000000000000000000000000000000282828060019003935081518110151561583657fe5b9060200101907effffffffffffffffffffffffffffffffffffffffffffffffffffffffffffff1916908160001a905350600a8681151561587257fe5b0495506157e5565b8194505b50505050919050565b60005b6020821015156158af578251845260208401935060208301925060208203915061588a565b6001826020036101000a0390508019835116818551168181178652505050505050565b828054600181600116156101000203166002900490600052602060002090601f016020900481019282601f1061591357805160ff1916838001178555615941565b82800160010185558215615941579182015b82811115615940578251825591602001919060010190615925565b5b50905061594e91906159ec565b5090565b828054600181600116156101000203166002900490600052602060002090601f016020900481019282601f1061599357805160ff19168380011785556159c1565b828001600101855582156159c1579182015b828111156159c05782518255916020019190600101906159a5565b5b5090506159ce91906159ec565b5090565b604080519081016040528060008152602001600081525090565b615a0e91905b80821115615a0a5760008160009055506001016159f2565b5090565b905600a165627a7a72305820e196ff288ca16b5261bcc43f077f2a2eb27cba6d0456bb4fb83f6c8a176cc90f0029",
  "source": "pragma solidity ^0.4.21;\n\nimport \"./strings.sol\";\n\ncontract EBuyContract {\n\n   using strings for *;\n\n    function EBuyContract() {\n\n    }\n\n  event NewItemEvent(string hashId, address seller);\n  event NewOrderEvent(string hashId, address seller, address buyer);\n  event ReceivedItemEvent(string hashId, address seller, address buyer);\n  event ItemSentEvent(string hashId, address seller, address delivery);\n\n  enum State {None, Available, Ordered, Sold, Canceled}\n  enum OrderState {Ordered, InDelivery, Delivered, Done, Canceled}\n\n\n  struct Item {\n\n    State state;\n    uint48 createdTime;\n    uint48 soldTime;\n    uint256 price;\n    address seller;\n    address buyer;\n    string hashId;\n  }\n\n  struct Order {\n\n    OrderState state;\n    address buyer;\n    address delivery;\n    uint48 orderTime;\n    uint48 deliveryTime;\n    uint48 deliveredTime;\n    uint48 closedTime;\n    string hashId;// item id\n    string receiverInfo;\n  }\n\n  enum DeliveryState {None, New, Approved, Deleted}\n  struct Delivery {\n    DeliveryState state;\n    address addr;\n    string ipfsId;\n  }\n\n  mapping(address=> string[]) public sellItems;\n  mapping(address=>string[]) public buyItems;\n  string[] public itemIds;\n  mapping(string=> Item) items;\n  mapping(string => Order[]) orders;\n  mapping(address => uint256) balances;\n\n  address [] public deliveryAddresses;\n  mapping(address => Delivery) private deliveries;\n\n  modifier onlySeller(string _hashId) {\n    require(items[_hashId].seller == msg.sender);\n    _;\n  }\n\n  modifier onlyBuyer(string _hashId) {\n    require(items[_hashId].buyer == msg.sender);\n    require(orders[_hashId].length > 0);\n    _;\n  }\n\n  modifier canCancel(string _hashId) {\n    require(items[_hashId].buyer == msg.sender || items[_hashId].seller == msg.sender);\n    require(orders[_hashId].length > 0);\n    _;\n  }\n\n  function registerDelivery(string ipfsId) public {\n      require(deliveries[msg.sender].state == DeliveryState.None);\n      deliveries[msg.sender] = Delivery(DeliveryState.New, msg.sender, ipfsId);\n      deliveryAddresses.push(msg.sender);\n  }\n\n  function getDelivery(address _addr) public view returns(address, DeliveryState, string ipfsId) {\n    return (deliveries[_addr].addr, deliveries[_addr].state, deliveries[_addr].ipfsId);\n  }\n\n  function listDeliveries() public view returns(address[], DeliveryState[], string ipfsIds) {\n    DeliveryState[] memory states = new DeliveryState[](deliveryAddresses.length);\n    for(uint i = 0; i < deliveryAddresses.length; i++) {\n      states[i] = deliveries[deliveryAddresses[i]].state;\n      ipfsIds = ipfsIds.toSlice().concat(\"--LINE--\".toSlice()).toSlice().concat(deliveries[deliveryAddresses[i]].ipfsId.toSlice());\n    }\n\n    return (deliveryAddresses, states, ipfsIds);\n  }\n\n  function addItem(string _hashId, uint256 _price) public returns(bool) {\n\n     require(_price > 0);\n     require(items[_hashId].state == State.None);\n     itemIds.push(_hashId);\n     items[_hashId] = Item(State.Available, uint48(now), 0, _price, msg.sender, 0x0, _hashId);\n     sellItems[msg.sender].push(_hashId);\n     emit NewItemEvent(_hashId, msg.sender);\n  }\n\n\n  function orderItem(string _hashId, string _receiverInfo) payable public returns(bool) {\n    require(msg.sender != items[_hashId].seller);\n    require(msg.value == items[_hashId].price);\n    require(items[_hashId].state == State.Available);\n\n    items[_hashId].state = State.Ordered;\n    items[_hashId].buyer = msg.sender;\n    buyItems[msg.sender].push(_hashId);\n\n    balances[msg.sender] += msg.value;\n\n    orders[_hashId].push(Order(OrderState.Ordered, msg.sender, items[_hashId].seller, uint48(now), 0, 0, 0,_hashId, _receiverInfo));\n\n    emit NewOrderEvent(_hashId, items[_hashId].seller, msg.sender);\n  }\n\n\n  function sendItem(string _hashId, address _delivery) public onlySeller(_hashId) {\n      // check if item is in latest order\n      require(orders[_hashId].length > 0);\n      Order storage order = orders[_hashId][orders[_hashId].length - 1];\n      require(order.state == OrderState.Ordered);\n      order.delivery = _delivery;\n      order.deliveryTime = uint48(now);\n      order.state = OrderState.InDelivery;\n      emit ItemSentEvent(_hashId, items[_hashId].seller, _delivery);\n\n  }\n\n  function deliverItem(string _hashId) {\n    require(items[_hashId].state == State.Ordered);\n    Order storage order = orders[_hashId][orders[_hashId].length - 1];\n    require(order.state == OrderState.InDelivery);\n    require(order.delivery == msg.sender);\n    order.deliveredTime = uint48(now);\n    order.state = OrderState.Delivered;\n  }\n\n  function receiveItem(string _hashId) public onlyBuyer(_hashId) returns(bool) {\n    Order storage order = orders[_hashId][orders[_hashId].length - 1];\n    require(order.buyer == msg.sender);\n    require(items[_hashId].seller != 0x0);\n    order.state = OrderState.Done;\n    order.closedTime = uint48(now);\n    items[_hashId].soldTime = uint48(now);\n    items[_hashId].seller.transfer(items[_hashId].price);\n    balances[msg.sender] -= items[_hashId].price;\n    emit ReceivedItemEvent(_hashId, items[_hashId].seller, msg.sender);\n    return true;\n  }\n\n  function cancelOrder(string _hashId) public canCancel(_hashId) returns (bool) {\n    Order storage order = orders[_hashId][orders[_hashId].length - 1];\n    require(order.state != OrderState.Done && order.state != OrderState.Delivered && order.state != OrderState.Canceled);\n    require( balances[msg.sender] > items[_hashId].price);\n    order.state = OrderState.Canceled;\n    items[_hashId].state = State.Available;\n    msg.sender.transfer(items[_hashId].price);\n    balances[msg.sender] -= items[_hashId].price;\n    return true;\n  }\n\n  function listItems() public view returns(string, uint256[], address[], address[],\n    State[], uint48[], uint48[] ) {\n    uint256[] memory prices = new uint[](itemIds.length);\n    uint48[] memory createTimes = new uint48[](itemIds.length);\n    uint48[] memory soldTimes = new uint48[](itemIds.length);\n    address[] memory buyers = new address[](itemIds.length);\n    address[] memory sellers = new address[](itemIds.length);\n    State[] memory states = new State[](itemIds.length);\n\n    for(uint i = 0; i < itemIds.length;i++) {\n      prices[i] = items[itemIds[i]].price;\n      sellers[i] = items[itemIds[i]].seller;\n      buyers[i] = items[itemIds[i]].buyer;\n      states[i] = items[itemIds[i]].state;\n      createTimes[i] = items[itemIds[i]].createdTime;\n      soldTimes[i] = items[itemIds[i]].soldTime;\n    }\n\n    return(getItemIds(), prices, sellers, buyers, states, createTimes, soldTimes);\n\n  }\n\n  function getItem(string hashId) public view returns(string, uint256, address, address,\n    State, uint48, uint48 ) {\n\n    return (hashId,items[hashId].price, items[hashId].seller,items[hashId].buyer, items[hashId].state, items[hashId].createdTime, items[hashId].soldTime );\n  }\n\n  function getItemIds() private returns(string ids)  {\n    for(uint i =0; i < itemIds.length;i++) {\n      ids = ids.toSlice().concat(\"--LINE--\".toSlice()).toSlice().concat(itemIds[i].toSlice());\n    }\n  }\n\n  function getOrderDetails(string _hashId) public view returns(address, address[], address[],\n    string, string, string) {\n    Order[] memory itemOrders = orders[_hashId];\n    string memory receiverInfo;\n    string memory times;\n    string memory states;\n//\n    address[] memory buyers = new address[](itemOrders.length);\n    address[] memory deliveries = new address[](itemOrders.length);\n    for(uint i = 0;i < itemOrders.length; i++) {\n      buyers[i] = itemOrders[i].buyer;\n      deliveries[i] = itemOrders[i].delivery;\n      receiverInfo = receiverInfo.toSlice().concat(\"--LINE--\".toSlice()).toSlice().concat(itemOrders[i].receiverInfo.toSlice());\n      times =               times.toSlice().concat(\"--LINE--\".toSlice()).toSlice().concat(uint2str(itemOrders[i].orderTime).toSlice()).toSlice().concat(\"-BR-\".toSlice());\n      times = times.toSlice().concat(uint2str(itemOrders[i].deliveryTime).toSlice()).toSlice().concat(\"-BR-\".toSlice());\n      times = times.toSlice().concat(uint2str(itemOrders[i].deliveredTime).toSlice()).toSlice().concat(\"-BR-\".toSlice());\n      times = times.toSlice().concat(uint2str(itemOrders[i].closedTime).toSlice()).toSlice().concat(\"-BR-\".toSlice());\n      states =               states.toSlice().concat(\"--LINE--\".toSlice()).toSlice().concat(uint2str(uint(itemOrders[i].state)).toSlice());\n\n    }\n    return (items[_hashId].seller, buyers, deliveries, receiverInfo,times,states);\n  }\n\n  function getItemsBySeller(address _seller) public view returns(string itemIds) {\n    if(sellItems[_seller].length > 0) {\n      for(uint i = 0; i < sellItems[_seller].length; i++) {\n        itemIds = itemIds.toSlice().concat(\"--LINE--\".toSlice()).toSlice().concat(sellItems[_seller][i].toSlice());\n      }\n    }\n  }\n  function getItemsByBuyer(address _buyer) public view returns(string itemIds) {\n    if(buyItems[_buyer].length > 0) {\n      for(uint i = 0; i < buyItems[_buyer].length; i++) {\n        itemIds = itemIds.toSlice().concat(\"--LINE--\".toSlice()).toSlice().concat(buyItems[_buyer][i].toSlice());\n      }\n    }\n  }\n\n  function uint2str(uint i) internal view returns (string){\n    if (i == 0) return \"0\";\n    uint j = i;\n    uint len;\n    while (j != 0){\n      len++;\n      j /= 10;\n    }\n    bytes memory bstr = new bytes(len);\n    uint k = len - 1;\n    while (i != 0){\n      bstr[k--] = byte(48 + i % 10);\n      i /= 10;\n    }\n    return string(bstr);\n  }\n }\n",
  "sourcePath": "/pub/smdmark/smdmark/backend/contracts/EBuyContract.sol",
  "compiler": {
    "name": "solc",
    "version": "0.4.24+commit.e67f0147.Emscripten.clang"
  },
  "schemaVersion": "2.0.1",
  "updatedAt": "2018-11-13T01:59:00.360Z"
}